:100000000C942A000C943F000C943F000C943F0089
:100010000C943F000C943F000C943F000C943F0064
:100020000C943F000C943F000C943F000C943F0054
:100030000C943F000C943F000C943F000C943F0044
:100040000C943F000C943F000C943F000C943F0034
:100050000C943F0011241FBECFE5D8E0DEBFCDBF1A
:1000600010E0A0E6B0E0E4E6F7E002C005900D92F3
:10007000A63FB107D9F70E943E020C94B0030C943E
:10008000000087B1806C87B986B1876886B908950A
:1000900097B1907E8F71892B87B9369A349BFECFAA
:1000A000349A84B125B190E0922B0895982F9770DF
:1000B000869586958695813021F130F08230F1F178
:1000C000833009F458C00895613069F44BB321E0DE
:1000D00030E0B90102C0660F771F9A95E2F7CB01B5
:1000E000842B8BBB08954BB321E030E0B90102C0F3
:1000F000660F771F9A95E2F7CB01809584238BBB1F
:100100000895613069F448B321E030E0B90102C0DC
:10011000660F771F9A95E2F7CB01842B88BB089571
:1001200048B321E030E0B90102C0660F771F9A950D
:10013000E2F7CB018095842388BB0895613069F490
:1001400045B321E030E0B90102C0660F771F9A95F0
:10015000E2F7CB01842B85BB089545B321E030E065
:10016000B90102C0660F771F9A95E2F7CB0180951F
:10017000842385BB0895613069F442B321E030E007
:10018000B90102C0660F771F9A95E2F7CB01842B65
:1001900082BB089542B321E030E0B90102C0660F8E
:1001A000771F9A95E2F7CB018095842382BB08954F
:1001B000813041F028F0823039F0833039F00895F1
:1001C0006BBB089568BB089565BB089562BB089535
:1001D000E0E6F0E080E041E050E0282F2770982F23
:1001E000969596959695913009F130F09230C1F13F
:1001F000933009F44FC067C09081913059F49AB39D
:10020000BA0102C0660F771F2A95E2F79B01292BDE
:100210002ABB59C03AB3BA0102C0660F771F2A95AC
:10022000E2F7962F909593239ABB4DC09081913021
:1002300059F497B3BA0102C0660F771F2A95E2F707
:100240009B01292B27BB3FC037B3BA0102C0660F01
:10025000771F2A95E2F7962F9095932397BB33C08B
:100260009081913059F494B3BA0102C0660F771FA0
:100270002A95E2F79B01292B24BB25C034B3BA0190
:1002800002C0660F771F2A95E2F7962F9095932369
:1002900094BB19C09081913059F491B3BA0102C056
:1002A000660F771F2A95E2F79B01292B21BB0BC014
:1002B00031B3BA0102C0660F771F2A95E2F7962F75
:1002C0009095932391BB8F5F3296803209F085CF52
:1002D0000895CF93C82F62B36F70807F682B83E03F
:1002E0000E94D80060E089E10E94560061E08BE145
:1002F0000E94560087EC90E00197F1F700C00000E3
:1003000060E08BE10E9456008FE19EE40197F1F7D7
:1003100000C0000062B36F7020E1C29FC0011124D1
:10032000682B83E00E94D80060E089E10E945600BB
:1003300061E08BE10E94560087EC90E00197F1F7B5
:1003400000C0000060E08BE10E9456008FE39FE157
:100350000197F1F700C00000CF9108950E94E800D6
:100360002FEF89EF90E0215080409040E1F700C0EE
:10037000000083E30E9469018FE193E00197F1F7A8
:1003800000C0000082E30E94690188E20E946901C6
:1003900086E00E9469018CE00E94690181E00E9470
:1003A00069010895CF93C82F62B36F70807F682B67
:1003B00083E00E94D80061E089E10E94560061E07C
:1003C0008BE10E94560087EC90E00197F1F700C0A6
:1003D000000060E08BE10E9456008FE19EE40197EF
:1003E000F1F700C0000062B36F7020E1C29FC0014E
:1003F0001124682B83E00E94D80061E089E10E940B
:10040000560061E08BE10E94560087EC90E0019776
:10041000F1F700C0000060E08BE10E9456008FE31E
:100420009FE10197F1F700C00000CF9108950F936D
:100430001F93CF93FC018081882359F08F01C0E086
:100440000E94D201CF5FF801EC0FF11D8081811174
:10045000F7CFCF911F910F910895813019F082301D
:1004600039F00895862F8F7080680E946901089581
:10047000862F8F70806C0E9469010895CF93DF935F
:10048000CDB7DEB760970FB6F894DEBF0FBECDBF15
:1004900083E50E9465030E94E8000E94AE010E946D
:1004A000410084B3886984BBBB9A1CBE83B78B664A
:1004B00083BF00E010E0F12C0F2EFFE7BF2EF02DE0
:1004C0000F2EFFEBCF2EF02DDD24DA940F2EFFE35D
:1004D000EF2EF02D0E9477030E947703823391F074
:1004E00040F48D3209F493C0813351F08B3291F78F
:1004F0003CC08536A1F1833709F1833359F704C035
:10050000AF9AE8CFAF98E6CF81E00E9448004AE07A
:10051000BE016F5F7F4F96958795969587950E9450
:100520007B036F2D81E00E942D0280EA90E00E9403
:100530001702CE0101960E941702CCCF1CBEAB98C9
:10054000AC9A81E00E94690161E081E00E942D0285
:100550008DEA90E00E94170201E010E0BBCF1CBEC4
:10056000AB98AC980F2D10E0B5CF01110CC081E015
:100570000E94690161E081E00E942D0287EB90E01A
:100580000E94170246C01F5F1230B1F018F41130FC
:1005900031F038C01330E9F0143041F133C0ECBE13
:1005A00081E00E94690161E081E00E942D028CECF3
:1005B00090E00E94170226C0BCBE81E00E94690143
:1005C00061E081E00E942D0286ED90E00E9417021A
:1005D00019C0CCBE81E00E94690161E081E00E9407
:1005E0002D0280EE90E00E9417020CC0DCBE81E07C
:1005F0000E94690161E081E00E942D028AEE90E094
:100600000E941702153008F465CF14E063CF011182
:100610000DC081E00E94690161E081E00E942D022D
:1006200087EB90E00E9417020F2D54CF115012302B
:1006300029F128F4112341F0113099F04BCF1330F8
:1006400051F11430A9F146CF1CBE81E00E9469012E
:1006500061E081E00E942D028DEA90E00E94170285
:1006600039CFECBE81E00E94690161E081E00E9427
:100670002D028CEC90E00E9417022CCFBCBE81E0D2
:100680000E94690161E081E00E942D0286ED90E008
:100690000E9417021FCFCCBE81E00E94690161E079
:1006A00081E00E942D0280EE90E00E94170212CF9E
:1006B000DCBE81E00E94690161E081E00E942D02C0
:1006C0008AEE90E00E94170205CF8D3419F0833531
:1006D00051F0089587B3806B87BBBE988DB180655C
:1006E0008DB9C49A0895BC98BE9A6E9A0895779B66
:1006F000FECF8FB10895BB274A3031F4992322F4FD
:10070000BDE2909581959F4F0C948703BB27FB0119
:100710005527AA27880F991FAA1FA41710F0A41BFA
:1007200083955051B9F7A05DAA3308F0A95DA19354
:10073000009779F7B111B1931192CB010C94A003FA
:10074000DC01FC01672F71917723E1F7329704C038
:100750007C916D9370836291AE17BF07C8F30895C3
:04076000F894FFCF3B
:100764000101010101010101010101010101010175
:100774000101010101010101010101010101010165
:100784000101010101010101010101010101010155
:100794000101010101010101010101010101010145
:1007A4005448452054454D502E203D20005370653B
:1007B4006564203D203000706C656173652054755C
:1007C400726E206F6E204D6F746F7200537065658A
:1007D400642032352500737065656420353025004A
:1007E4005370656564203735250053706565642052
:0607F40031303025000049
:00000001FF
