S01900004D617374657220536D61727420486F6D652E73726563CF
S11300000C942A000C943F000C943F000C943F0085
S11300100C943F000C943F000C943F000C943F0060
S11300200C943F000C943F000C943F000C943F0050
S11300300C943F000C943F000C943F000C943F0040
S11300400C943F000C943F000C943F000C943F0030
S11300500C943F0011241FBECFE5D8E0DEBFCDBF16
S113006010E0A0E6B0E0E4EAF5E002C005900D92ED
S1130070AC3FB107D9F70E9429020C94D0020C942A
S11300800000982F9770869586958695813021F18A
S113009030F08230F1F1833009F458C008956130B2
S11300A069F44BB321E030E0B90102C0660F771F59
S11300B09A95E2F7CB01842B8BBB08954BB321E0D7
S11300C030E0B90102C0660F771F9A95E2F7CB01C1
S11300D0809584238BBB0895613069F448B321E093
S11300E030E0B90102C0660F771F9A95E2F7CB01A1
S11300F0842B88BB089548B321E030E0B90102C0E5
S1130100660F771F9A95E2F7CB018095842388BB0D
S11301100895613069F445B321E030E0B90102C0CB
S1130120660F771F9A95E2F7CB01842B85BB089560
S113013045B321E030E0B90102C0660F771F9A95FC
S1130140E2F7CB018095842385BB0895613069F47F
S113015042B321E030E0B90102C0660F771F9A95DF
S1130160E2F7CB01842B82BB089542B321E030E057
S1130170B90102C0660F771F9A95E2F7CB0180950B
S1130180842382BB0895813041F028F0823039F015
S1130190833039F008956BBB089568BB089565BB3F
S11301A0089562BB0895E0E6F0E080E041E050E0AD
S11301B0282F2770982F969596959695913009F14A
S11301C030F09230C1F1933009F44FC067C0908190
S11301D0913059F49AB3BA0102C0660F771F2A9579
S11301E0E2F79B01292B2ABB59C03AB3BA0102C0DA
S11301F0660F771F2A95E2F7962F909593239ABB63
S11302004DC09081913059F497B3BA0102C0660F82
S1130210771F2A95E2F79B01292B27BB3FC037B3F1
S1130220BA0102C0660F771F2A95E2F7962F9095C0
S1130230932397BB33C09081913059F494B3BA019E
S113024002C0660F771F2A95E2F79B01292B24BB76
S113025025C034B3BA0102C0660F771F2A95E2F7AE
S1130260962F9095932394BB19C09081913059F4A3
S113027091B3BA0102C0660F771F2A95E2F79B017A
S1130280292B21BB0BC031B3BA0102C0660F771F03
S11302902A95E2F7962F9095932391BB8F5F329620
S11302A0803209F085CF0895CF93C82F65B36F705E
S11302B0807F682B82E00E94C30060E081E10E949D
S11302C0410061E083E10E94410087EC90E00197E6
S11302D0F1F700C0000060E083E10E9441008FE17B
S11302E09EE40197F1F700C0000065B36F7020E150
S11302F0C29FC0011124682B82E00E94C30060E009
S113030081E10E94410061E083E10E94410087ECA9
S113031090E00197F1F700C0000060E083E10E94E3
S113032041008FE39FE10197F1F700C00000CF91F6
S113033008950E94D3002FEF89EF90E02150804070
S11303409040E1F700C0000083E30E9454018FE174
S113035093E00197F1F700C0000082E30E9454018A
S113036088E20E94540186E00E9454018CE00E94BD
S1130370540181E00E9454010895CF93C82F65B3BE
S11303806F70807F682B82E00E94C30061E081E18E
S11303900E94410061E083E10E94410087EC90E00B
S11303A00197F1F700C0000060E083E10E94410082
S11303B08FE19EE40197F1F700C0000065B36F7010
S11303C020E1C29FC0011124682B82E00E94C30077
S11303D061E081E10E94410061E083E10E9441000B
S11303E087EC90E00197F1F700C0000060E083E142
S11303F00E9441008FE39FE10197F1F700C00000E4
S1130400CF9108950F931F93CF93FC01808188238C
S113041059F08F01C0E00E94BD01CF5FF801EC0FDD
S1130420F11D80818111F7CFCF911F910F91089514
S1130430813019F0823039F00895862F8F708068EA
S11304400E9454010895862F8F70806C0E9454017D
S113045008950E94D3000E9499018DE40E94AB028A
S1130460C4980E94C20261E081E00E94180280EAFE
S113047090E00E94020261E082E00E9418028FEA8A
S113048090E00E9402020E94CC02823301F140F407
S11304908D3209F45CC0813359F08B32A1F753C01B
S11304A0853609F441C0833781F1833361F71EC077
S11304B081E30E94BD0281E00E94540161E081E079
S11304C00E9418028EEB90E00E940202DCCF82E3CD
S11304D00E94BD0281E00E94540161E081E00E941B
S11304E0180288EC90E00E940202CDCF83E30E94C0
S11304F0BD0281E00E94540161E081E00E94180283
S113050083ED90E00E940202BECF83E70E94BD0209
S113051081E00E94540161E081E00E94180283EEB0
S113052090E00E940202AFCF83E70E94BD0281E007
S11305300E94540161E081E00E9418028FEE90E075
S11305400E940202A0CF8BE20E94BD029CCF8DE2EA
S11305500E94BD0298CF8D3419F0833551F008956F
S113056087B3806B87BBBE988DB180658DB9C49A03
S11305700895BC98BE9A6E9A08958FB9779BFECF62
S11305808FB108958AB188618AB980B5866880BDC3
S113059087E689B910BC08955F9BFECF8CB108959E
S10705A0F894FFCFF9
S11305A40101010101010101010101010101010133
S11305B40101010101010101010101010101010123
S11305C40101010101010101010101010101010113
S11305D40101010101010101010101010101010103
S11305E46B69726F6C6F7320526166696B20004D86
S11305F47920536D61727420486F6D6520004C45F9
S113060444206973204F4E004C4544206973204FA5
S1130614464600526563656976696E672054656D64
S1130624703A004D6F746F72206973204F4E004D01
S10F06346F746F72206973204F464600FB
S9030000FC
